{
  "contractName": "ShineGameFiPresale",
  "abi": [
    {
      "inputs": [
        {
          "internalType": "address",
          "name": "_admin",
          "type": "address"
        },
        {
          "internalType": "address",
          "name": "_usdt",
          "type": "address"
        },
        {
          "internalType": "address",
          "name": "_token",
          "type": "address"
        },
        {
          "internalType": "address",
          "name": "_chainlink",
          "type": "address"
        }
      ],
      "stateMutability": "nonpayable",
      "type": "constructor"
    },
    {
      "inputs": [],
      "name": "EnforcedPause",
      "type": "error"
    },
    {
      "inputs": [],
      "name": "ExpectedPause",
      "type": "error"
    },
    {
      "inputs": [
        {
          "internalType": "address",
          "name": "owner",
          "type": "address"
        }
      ],
      "name": "OwnableInvalidOwner",
      "type": "error"
    },
    {
      "inputs": [
        {
          "internalType": "address",
          "name": "account",
          "type": "address"
        }
      ],
      "name": "OwnableUnauthorizedAccount",
      "type": "error"
    },
    {
      "anonymous": false,
      "inputs": [
        {
          "indexed": true,
          "internalType": "address",
          "name": "previousOwner",
          "type": "address"
        },
        {
          "indexed": true,
          "internalType": "address",
          "name": "newOwner",
          "type": "address"
        }
      ],
      "name": "OwnershipTransferred",
      "type": "event"
    },
    {
      "anonymous": false,
      "inputs": [
        {
          "indexed": false,
          "internalType": "address",
          "name": "account",
          "type": "address"
        }
      ],
      "name": "Paused",
      "type": "event"
    },
    {
      "anonymous": false,
      "inputs": [
        {
          "indexed": true,
          "internalType": "address",
          "name": "buyer",
          "type": "address"
        },
        {
          "indexed": false,
          "internalType": "uint256",
          "name": "amountClaimed",
          "type": "uint256"
        }
      ],
      "name": "TokensClaimed",
      "type": "event"
    },
    {
      "anonymous": false,
      "inputs": [
        {
          "indexed": true,
          "internalType": "address",
          "name": "buyer",
          "type": "address"
        },
        {
          "indexed": false,
          "internalType": "uint256",
          "name": "etherAmount",
          "type": "uint256"
        },
        {
          "indexed": false,
          "internalType": "uint256",
          "name": "tokenAmount",
          "type": "uint256"
        }
      ],
      "name": "TokensPerEtherPurchased",
      "type": "event"
    },
    {
      "anonymous": false,
      "inputs": [
        {
          "indexed": true,
          "internalType": "address",
          "name": "buyer",
          "type": "address"
        },
        {
          "indexed": false,
          "internalType": "uint256",
          "name": "usdtAmount",
          "type": "uint256"
        },
        {
          "indexed": false,
          "internalType": "uint256",
          "name": "tokenAmount",
          "type": "uint256"
        }
      ],
      "name": "TokensPerUSDTPurchased",
      "type": "event"
    },
    {
      "anonymous": false,
      "inputs": [
        {
          "indexed": false,
          "internalType": "address",
          "name": "account",
          "type": "address"
        }
      ],
      "name": "Unpaused",
      "type": "event"
    },
    {
      "inputs": [],
      "name": "admin",
      "outputs": [
        {
          "internalType": "address payable",
          "name": "",
          "type": "address"
        }
      ],
      "stateMutability": "view",
      "type": "function"
    },
    {
      "inputs": [
        {
          "internalType": "address",
          "name": "",
          "type": "address"
        }
      ],
      "name": "buyerClaims",
      "outputs": [
        {
          "internalType": "uint256",
          "name": "",
          "type": "uint256"
        }
      ],
      "stateMutability": "view",
      "type": "function"
    },
    {
      "inputs": [],
      "name": "claimDay",
      "outputs": [
        {
          "internalType": "uint256",
          "name": "",
          "type": "uint256"
        }
      ],
      "stateMutability": "view",
      "type": "function"
    },
    {
      "inputs": [],
      "name": "firstStageClaimDate",
      "outputs": [
        {
          "internalType": "uint256",
          "name": "",
          "type": "uint256"
        }
      ],
      "stateMutability": "view",
      "type": "function"
    },
    {
      "inputs": [
        {
          "internalType": "address",
          "name": "",
          "type": "address"
        }
      ],
      "name": "firstStagebalances",
      "outputs": [
        {
          "internalType": "uint256",
          "name": "",
          "type": "uint256"
        }
      ],
      "stateMutability": "view",
      "type": "function"
    },
    {
      "inputs": [],
      "name": "initialReleasePercentage",
      "outputs": [
        {
          "internalType": "uint256",
          "name": "",
          "type": "uint256"
        }
      ],
      "stateMutability": "view",
      "type": "function"
    },
    {
      "inputs": [],
      "name": "isOpenClaim",
      "outputs": [
        {
          "internalType": "bool",
          "name": "",
          "type": "bool"
        }
      ],
      "stateMutability": "view",
      "type": "function"
    },
    {
      "inputs": [
        {
          "internalType": "address",
          "name": "",
          "type": "address"
        }
      ],
      "name": "lastClaimTime",
      "outputs": [
        {
          "internalType": "uint256",
          "name": "",
          "type": "uint256"
        }
      ],
      "stateMutability": "view",
      "type": "function"
    },
    {
      "inputs": [],
      "name": "maxClaims",
      "outputs": [
        {
          "internalType": "uint256",
          "name": "",
          "type": "uint256"
        }
      ],
      "stateMutability": "view",
      "type": "function"
    },
    {
      "inputs": [],
      "name": "minimumPurchaseUSDT",
      "outputs": [
        {
          "internalType": "uint256",
          "name": "",
          "type": "uint256"
        }
      ],
      "stateMutability": "view",
      "type": "function"
    },
    {
      "inputs": [],
      "name": "owner",
      "outputs": [
        {
          "internalType": "address",
          "name": "",
          "type": "address"
        }
      ],
      "stateMutability": "view",
      "type": "function"
    },
    {
      "inputs": [],
      "name": "paused",
      "outputs": [
        {
          "internalType": "bool",
          "name": "",
          "type": "bool"
        }
      ],
      "stateMutability": "view",
      "type": "function"
    },
    {
      "inputs": [],
      "name": "renounceOwnership",
      "outputs": [],
      "stateMutability": "nonpayable",
      "type": "function"
    },
    {
      "inputs": [],
      "name": "secondStageClaimDate",
      "outputs": [
        {
          "internalType": "uint256",
          "name": "",
          "type": "uint256"
        }
      ],
      "stateMutability": "view",
      "type": "function"
    },
    {
      "inputs": [
        {
          "internalType": "address",
          "name": "",
          "type": "address"
        }
      ],
      "name": "secondStagebalances",
      "outputs": [
        {
          "internalType": "uint256",
          "name": "",
          "type": "uint256"
        }
      ],
      "stateMutability": "view",
      "type": "function"
    },
    {
      "inputs": [],
      "name": "token",
      "outputs": [
        {
          "internalType": "contract IERC20",
          "name": "",
          "type": "address"
        }
      ],
      "stateMutability": "view",
      "type": "function"
    },
    {
      "inputs": [],
      "name": "tokenPerUSDT",
      "outputs": [
        {
          "internalType": "uint256",
          "name": "",
          "type": "uint256"
        }
      ],
      "stateMutability": "view",
      "type": "function"
    },
    {
      "inputs": [],
      "name": "totalBalanceTokensStored",
      "outputs": [
        {
          "internalType": "uint256",
          "name": "",
          "type": "uint256"
        }
      ],
      "stateMutability": "view",
      "type": "function"
    },
    {
      "inputs": [
        {
          "internalType": "address",
          "name": "newOwner",
          "type": "address"
        }
      ],
      "name": "transferOwnership",
      "outputs": [],
      "stateMutability": "nonpayable",
      "type": "function"
    },
    {
      "inputs": [],
      "name": "usdt",
      "outputs": [
        {
          "internalType": "contract IERC20",
          "name": "",
          "type": "address"
        }
      ],
      "stateMutability": "view",
      "type": "function"
    },
    {
      "stateMutability": "payable",
      "type": "receive"
    },
    {
      "inputs": [],
      "name": "buyTokensByEther",
      "outputs": [],
      "stateMutability": "payable",
      "type": "function"
    },
    {
      "inputs": [
        {
          "internalType": "uint256",
          "name": "_usdtAmount",
          "type": "uint256"
        }
      ],
      "name": "buyTokensByUSDT",
      "outputs": [],
      "stateMutability": "nonpayable",
      "type": "function"
    },
    {
      "inputs": [],
      "name": "claimFirstStage",
      "outputs": [],
      "stateMutability": "nonpayable",
      "type": "function"
    },
    {
      "inputs": [],
      "name": "claim",
      "outputs": [],
      "stateMutability": "nonpayable",
      "type": "function"
    },
    {
      "inputs": [
        {
          "internalType": "uint256",
          "name": "_amount",
          "type": "uint256"
        }
      ],
      "name": "openClaim",
      "outputs": [],
      "stateMutability": "nonpayable",
      "type": "function"
    },
    {
      "inputs": [
        {
          "internalType": "address",
          "name": "_account",
          "type": "address"
        }
      ],
      "name": "calculateClaimableAmount",
      "outputs": [
        {
          "internalType": "uint256",
          "name": "",
          "type": "uint256"
        }
      ],
      "stateMutability": "view",
      "type": "function"
    },
    {
      "inputs": [
        {
          "internalType": "uint256",
          "name": "timestamp",
          "type": "uint256"
        }
      ],
      "name": "startOfMonth",
      "outputs": [
        {
          "internalType": "uint256",
          "name": "",
          "type": "uint256"
        }
      ],
      "stateMutability": "pure",
      "type": "function"
    },
    {
      "inputs": [],
      "name": "tokenBalanceAvailableForPurchase",
      "outputs": [
        {
          "internalType": "uint256",
          "name": "",
          "type": "uint256"
        }
      ],
      "stateMutability": "view",
      "type": "function"
    },
    {
      "inputs": [
        {
          "internalType": "uint256",
          "name": "_etherAmount",
          "type": "uint256"
        }
      ],
      "name": "etherToUSDT",
      "outputs": [
        {
          "internalType": "uint256",
          "name": "",
          "type": "uint256"
        }
      ],
      "stateMutability": "view",
      "type": "function"
    },
    {
      "inputs": [
        {
          "internalType": "uint256",
          "name": "_usdtAmount",
          "type": "uint256"
        }
      ],
      "name": "usdtToToken",
      "outputs": [
        {
          "internalType": "uint256",
          "name": "",
          "type": "uint256"
        }
      ],
      "stateMutability": "view",
      "type": "function"
    },
    {
      "inputs": [],
      "name": "getLatestPrice",
      "outputs": [
        {
          "internalType": "uint256",
          "name": "",
          "type": "uint256"
        }
      ],
      "stateMutability": "view",
      "type": "function"
    },
    {
      "inputs": [
        {
          "internalType": "contract IERC20",
          "name": "_token",
          "type": "address"
        }
      ],
      "name": "changeTokenAddress",
      "outputs": [],
      "stateMutability": "nonpayable",
      "type": "function"
    },
    {
      "inputs": [
        {
          "internalType": "contract IERC20",
          "name": "_usdt",
          "type": "address"
        }
      ],
      "name": "changeUSDTAddress",
      "outputs": [],
      "stateMutability": "nonpayable",
      "type": "function"
    },
    {
      "inputs": [
        {
          "internalType": "address",
          "name": "_chainlink",
          "type": "address"
        }
      ],
      "name": "changeChainlink",
      "outputs": [],
      "stateMutability": "nonpayable",
      "type": "function"
    },
    {
      "inputs": [
        {
          "internalType": "uint256",
          "name": "_price",
          "type": "uint256"
        }
      ],
      "name": "changePrice",
      "outputs": [],
      "stateMutability": "nonpayable",
      "type": "function"
    },
    {
      "inputs": [
        {
          "internalType": "uint256",
          "name": "_minimumPurchaseUSDT",
          "type": "uint256"
        }
      ],
      "name": "changeMinimumPurchaseUSDT",
      "outputs": [],
      "stateMutability": "nonpayable",
      "type": "function"
    },
    {
      "inputs": [
        {
          "internalType": "uint256",
          "name": "_claimDay",
          "type": "uint256"
        }
      ],
      "name": "changeClaimDay",
      "outputs": [],
      "stateMutability": "nonpayable",
      "type": "function"
    },
    {
      "inputs": [
        {
          "internalType": "uint256",
          "name": "_firstStageClaimDate",
          "type": "uint256"
        }
      ],
      "name": "changeFirstStageClaimDate",
      "outputs": [],
      "stateMutability": "nonpayable",
      "type": "function"
    },
    {
      "inputs": [
        {
          "internalType": "uint256",
          "name": "_secondStageClaimDate",
          "type": "uint256"
        }
      ],
      "name": "changeSecondStageClaimDate",
      "outputs": [],
      "stateMutability": "nonpayable",
      "type": "function"
    },
    {
      "inputs": [
        {
          "internalType": "uint256",
          "name": "_initialReleasePercentage",
          "type": "uint256"
        }
      ],
      "name": "changeInitialReleasePercentage",
      "outputs": [],
      "stateMutability": "nonpayable",
      "type": "function"
    },
    {
      "inputs": [
        {
          "internalType": "uint256",
          "name": "_maxClaims",
          "type": "uint256"
        }
      ],
      "name": "changeMaxClaims",
      "outputs": [],
      "stateMutability": "nonpayable",
      "type": "function"
    },
    {
      "inputs": [
        {
          "internalType": "bool",
          "name": "_isOpenClaim",
          "type": "bool"
        }
      ],
      "name": "setIsOpenClaim",
      "outputs": [],
      "stateMutability": "nonpayable",
      "type": "function"
    },
    {
      "inputs": [
        {
          "internalType": "uint256",
          "name": "_amount",
          "type": "uint256"
        }
      ],
      "name": "transferFundsTokens",
      "outputs": [],
      "stateMutability": "nonpayable",
      "type": "function"
    },
    {
      "inputs": [],
      "name": "contractBalanceTokens",
      "outputs": [
        {
          "internalType": "uint256",
          "name": "",
          "type": "uint256"
        }
      ],
      "stateMutability": "view",
      "type": "function"
    },
    {
      "inputs": [],
      "name": "pause",
      "outputs": [],
      "stateMutability": "nonpayable",
      "type": "function"
    },
    {
      "inputs": [],
      "name": "unpause",
      "outputs": [],
      "stateMutability": "nonpayable",
      "type": "function"
    }
  ],
  "bytecode": "0x60a060405268090902c9f1ca5b00006004556801158e460913d00000600555600a600655600980556014600a555f600b555f600c5f6101000a81548160ff02191690831515021790555034801562000055575f80fd5b5060405162003b2838038062003b2883398181016040528101906200007b919062000354565b6200008b6200022760201b60201c565b5f73ffffffffffffffffffffffffffffffffffffffff168173ffffffffffffffffffffffffffffffffffffffff1603620000fe575f6040517f1e4fbdf7000000000000000000000000000000000000000000000000000000008152600401620000f59190620003d4565b60405180910390fd5b6200010f816200022e60201b60201c565b505f8060146101000a81548160ff0219169083151502179055508373ffffffffffffffffffffffffffffffffffffffff1660808173ffffffffffffffffffffffffffffffffffffffff16815250508160015f6101000a81548173ffffffffffffffffffffffffffffffffffffffff021916908373ffffffffffffffffffffffffffffffffffffffff1602179055508260025f6101000a81548173ffffffffffffffffffffffffffffffffffffffff021916908373ffffffffffffffffffffffffffffffffffffffff1602179055508060035f6101000a81548173ffffffffffffffffffffffffffffffffffffffff021916908373ffffffffffffffffffffffffffffffffffffffff16021790555050505050620003ef565b5f33905090565b5f805f9054906101000a900473ffffffffffffffffffffffffffffffffffffffff169050815f806101000a81548173ffffffffffffffffffffffffffffffffffffffff021916908373ffffffffffffffffffffffffffffffffffffffff1602179055508173ffffffffffffffffffffffffffffffffffffffff168173ffffffffffffffffffffffffffffffffffffffff167f8be0079c531659141344cd1fd0a4f28419497f9722a3daafe3b4186f6b6457e060405160405180910390a35050565b5f80fd5b5f73ffffffffffffffffffffffffffffffffffffffff82169050919050565b5f6200031e82620002f3565b9050919050565b620003308162000312565b81146200033b575f80fd5b50565b5f815190506200034e8162000325565b92915050565b5f805f80608085870312156200036f576200036e620002ef565b5b5f6200037e878288016200033e565b945050602062000391878288016200033e565b9350506040620003a4878288016200033e565b9250506060620003b7878288016200033e565b91505092959194509250565b620003ce8162000312565b82525050565b5f602082019050620003e95f830184620003c3565b92915050565b60805161370b6200041d5f395f818161142101528181611c46015281816120ae01526121c7015261370b5ff3fe608060405260043610610280575f3560e01c80638e15f4731161014e578063c7e70ac0116100c0578063db4f119411610079578063db4f119414610911578063e814532d14610939578063f2fde38b14610961578063f851a44014610989578063f8b7e153146109b3578063fc0c546a146109db57610287565b8063c7e70ac014610839578063c9cda91f14610843578063c9e18c9d1461086b578063ca18309b14610895578063cf5380b4146108ab578063d88f1650146108d557610287565b8063b16384f611610112578063b16384f61461071d578063b4c75bac14610747578063b77cf9c61461076f578063b77de0fd146107ab578063bb96c874146107d5578063c68177161461081157610287565b80638e15f47314610651578063947c74ec1461067b57806395ded8a0146106a3578063a2b40d19146106cd578063ab09b502146106f557610287565b80635c975abb116101f2578063764e35a5116101ab578063764e35a5146105595780637b76c9fd146105815780637f774d02146105bd57806383573207146105e75780638456cb59146106115780638da5cb5b1461062757610287565b80635c975abb1461044d5780635ed2cccf14610477578063685439d8146104a15780636a04351b146104cb578063715018a6146105075780637274f7fd1461051d57610287565b80633913b37d116102445780633913b37d146103595780633f4ba83a14610381578063486047dc146103975780634a67f88f146103d35780634e71d92d1461040f5780635c8e0a2c1461042557610287565b80630bf3df0f1461028b5780630e963a6d146102b35780631355ab6f146102db5780632f48ab7d146103055780632fc847b11461032f57610287565b3661028757005b5f80fd5b348015610296575f80fd5b506102b160048036038101906102ac91906128f9565b610a05565b005b3480156102be575f80fd5b506102d960048036038101906102d49190612957565b610a50565b005b3480156102e6575f80fd5b506102ef610a62565b6040516102fc9190612991565b60405180910390f35b348015610310575f80fd5b50610319610a68565b6040516103269190612a05565b60405180910390f35b34801561033a575f80fd5b50610343610a8d565b6040516103509190612991565b60405180910390f35b348015610364575f80fd5b5061037f600480360381019061037a9190612957565b610a93565b005b34801561038c575f80fd5b50610395610aa5565b005b3480156103a2575f80fd5b506103bd60048036038101906103b89190612957565b610ab7565b6040516103ca9190612991565b60405180910390f35b3480156103de575f80fd5b506103f960048036038101906103f49190612a48565b610ae5565b6040516104069190612991565b60405180910390f35b34801561041a575f80fd5b50610423610afa565b005b348015610430575f80fd5b5061044b60048036038101906104469190612957565b610ecd565b005b348015610458575f80fd5b506104616111a5565b60405161046e9190612a8d565b60405180910390f35b348015610482575f80fd5b5061048b6111ba565b6040516104989190612991565b60405180910390f35b3480156104ac575f80fd5b506104b56111c0565b6040516104c29190612991565b60405180910390f35b3480156104d6575f80fd5b506104f160048036038101906104ec9190612957565b6111c6565b6040516104fe9190612991565b60405180910390f35b348015610512575f80fd5b5061051b6111f4565b005b348015610528575f80fd5b50610543600480360381019061053e9190612a48565b611207565b6040516105509190612991565b60405180910390f35b348015610564575f80fd5b5061057f600480360381019061057a9190612957565b611337565b005b34801561058c575f80fd5b506105a760048036038101906105a29190612957565b6116d2565b6040516105b49190612991565b60405180910390f35b3480156105c8575f80fd5b506105d1611796565b6040516105de9190612991565b60405180910390f35b3480156105f2575f80fd5b506105fb61179c565b6040516106089190612991565b60405180910390f35b34801561061c575f80fd5b506106256117a2565b005b348015610632575f80fd5b5061063b6117b4565b6040516106489190612ab5565b60405180910390f35b34801561065c575f80fd5b506106656117db565b6040516106729190612991565b60405180910390f35b348015610686575f80fd5b506106a1600480360381019061069c9190612a48565b611878565b005b3480156106ae575f80fd5b506106b76118c3565b6040516106c49190612a8d565b60405180910390f35b3480156106d8575f80fd5b506106f360048036038101906106ee9190612957565b6118d5565b005b348015610700575f80fd5b5061071b60048036038101906107169190612957565b6118e7565b005b348015610728575f80fd5b506107316118f9565b60405161073e9190612991565b60405180910390f35b348015610752575f80fd5b5061076d60048036038101906107689190612af8565b6118ff565b005b34801561077a575f80fd5b5061079560048036038101906107909190612a48565b611923565b6040516107a29190612991565b60405180910390f35b3480156107b6575f80fd5b506107bf611938565b6040516107cc9190612991565b60405180910390f35b3480156107e0575f80fd5b506107fb60048036038101906107f69190612a48565b6119d7565b6040516108089190612991565b60405180910390f35b34801561081c575f80fd5b5061083760048036038101906108329190612957565b6119ec565b005b6108416119fe565b005b34801561084e575f80fd5b50610869600480360381019061086491906128f9565b611d05565b005b348015610876575f80fd5b5061087f611d50565b60405161088c9190612991565b60405180910390f35b3480156108a0575f80fd5b506108a9611e0d565b005b3480156108b6575f80fd5b506108bf612002565b6040516108cc9190612991565b60405180910390f35b3480156108e0575f80fd5b506108fb60048036038101906108f69190612a48565b612008565b6040516109089190612991565b60405180910390f35b34801561091c575f80fd5b5061093760048036038101906109329190612957565b61201d565b005b348015610944575f80fd5b5061095f600480360381019061095a9190612957565b61212f565b005b34801561096c575f80fd5b5061098760048036038101906109829190612a48565b612141565b005b348015610994575f80fd5b5061099d6121c5565b6040516109aa9190612b43565b60405180910390f35b3480156109be575f80fd5b506109d960048036038101906109d49190612957565b6121e9565b005b3480156109e6575f80fd5b506109ef6121fb565b6040516109fc9190612a05565b60405180910390f35b610a0d612220565b8060025f6101000a81548173ffffffffffffffffffffffffffffffffffffffff021916908373ffffffffffffffffffffffffffffffffffffffff16021790555050565b610a58612220565b8060098190555050565b60045481565b60025f9054906101000a900473ffffffffffffffffffffffffffffffffffffffff1681565b60075481565b610a9b612220565b8060058190555050565b610aad612220565b610ab56122a7565b565b5f80670de0b6b3a764000060045484610ad09190612b89565b610ada9190612bf7565b905080915050919050565b600d602052805f5260405f205f915090505481565b610b02612308565b600854421015610b47576040517f08c379a0000000000000000000000000000000000000000000000000000000008152600401610b3e90612ca7565b60405180910390fd5b600654610b5342612349565b1015610b94576040517f08c379a0000000000000000000000000000000000000000000000000000000008152600401610b8b90612d35565b60405180910390fd5b610b9d426111c6565b60105f610ba861236f565b73ffffffffffffffffffffffffffffffffffffffff1673ffffffffffffffffffffffffffffffffffffffff1681526020019081526020015f205410610c22576040517f08c379a0000000000000000000000000000000000000000000000000000000008152600401610c1990612dc3565b60405180910390fd5b5f610c33610c2e61236f565b611207565b90504260105f610c4161236f565b73ffffffffffffffffffffffffffffffffffffffff1673ffffffffffffffffffffffffffffffffffffffff1681526020019081526020015f208190555060015f9054906101000a900473ffffffffffffffffffffffffffffffffffffffff1673ffffffffffffffffffffffffffffffffffffffff1663a9059cbb610cc361236f565b836040518363ffffffff1660e01b8152600401610ce1929190612de1565b6020604051808303815f875af1158015610cfd573d5f803e3d5ffd5b505050506040513d601f19601f82011682018060405250810190610d219190612e1c565b610d60576040517f08c379a0000000000000000000000000000000000000000000000000000000008152600401610d5790612eb7565b60405180910390fd5b610db781600e5f610d6f61236f565b73ffffffffffffffffffffffffffffffffffffffff1673ffffffffffffffffffffffffffffffffffffffff1681526020019081526020015f205461237690919063ffffffff16565b600e5f610dc261236f565b73ffffffffffffffffffffffffffffffffffffffff1673ffffffffffffffffffffffffffffffffffffffff1681526020019081526020015f2081905550610e1481600b5461237690919063ffffffff16565b600b819055506001600f5f610e2761236f565b73ffffffffffffffffffffffffffffffffffffffff1673ffffffffffffffffffffffffffffffffffffffff1681526020019081526020015f205f828254610e6e9190612ed5565b92505081905550610e7d61236f565b73ffffffffffffffffffffffffffffffffffffffff167f896e034966eaaf1adc54acc0f257056febbd300c9e47182cf761982cf1f5e43082604051610ec29190612991565b60405180910390a250565b610ed5612308565b60011515600c5f9054906101000a900460ff16151514610f2a576040517f08c379a0000000000000000000000000000000000000000000000000000000008152600401610f2190612f52565b60405180910390fd5b80600e5f610f3661236f565b73ffffffffffffffffffffffffffffffffffffffff1673ffffffffffffffffffffffffffffffffffffffff1681526020019081526020015f20541015610fb1576040517f08c379a0000000000000000000000000000000000000000000000000000000008152600401610fa890612fba565b60405180910390fd5b60015f9054906101000a900473ffffffffffffffffffffffffffffffffffffffff1673ffffffffffffffffffffffffffffffffffffffff1663a9059cbb610ff661236f565b836040518363ffffffff1660e01b8152600401611014929190612de1565b6020604051808303815f875af1158015611030573d5f803e3d5ffd5b505050506040513d601f19601f820116820180604052508101906110549190612e1c565b611093576040517f08c379a000000000000000000000000000000000000000000000000000000000815260040161108a90612eb7565b60405180910390fd5b6110ea81600e5f6110a261236f565b73ffffffffffffffffffffffffffffffffffffffff1673ffffffffffffffffffffffffffffffffffffffff1681526020019081526020015f205461237690919063ffffffff16565b600e5f6110f561236f565b73ffffffffffffffffffffffffffffffffffffffff1673ffffffffffffffffffffffffffffffffffffffff1681526020019081526020015f208190555061114781600b5461237690919063ffffffff16565b600b8190555061115561236f565b73ffffffffffffffffffffffffffffffffffffffff167f896e034966eaaf1adc54acc0f257056febbd300c9e47182cf761982cf1f5e4308260405161119a9190612991565b60405180910390a250565b5f8060149054906101000a900460ff16905090565b60085481565b600a5481565b5f806111d18361238b565b90505f6111dd846123af565b90506111eb828260016123d4565b92505050919050565b6111fc612220565b6112055f6123f7565b565b5f80600e5f8473ffffffffffffffffffffffffffffffffffffffff1673ffffffffffffffffffffffffffffffffffffffff1681526020019081526020015f205411611287576040517f08c379a000000000000000000000000000000000000000000000000000000000815260040161127e90612fba565b60405180910390fd5b5f600e5f8473ffffffffffffffffffffffffffffffffffffffff1673ffffffffffffffffffffffffffffffffffffffff1681526020019081526020015f205490505f600f5f8573ffffffffffffffffffffffffffffffffffffffff1673ffffffffffffffffffffffffffffffffffffffff1681526020019081526020015f20546009546113149190612fd8565b90505f61132a82846124b890919063ffffffff16565b9050809350505050919050565b61133f612308565b600554811015611384576040517f08c379a000000000000000000000000000000000000000000000000000000000815260040161137b90613055565b60405180910390fd5b5f61138e82610ab7565b905080611399611d50565b10156113da576040517f08c379a00000000000000000000000000000000000000000000000000000000081526004016113d1906130e3565b60405180910390fd5b60025f9054906101000a900473ffffffffffffffffffffffffffffffffffffffff1673ffffffffffffffffffffffffffffffffffffffff166323b872dd61141f61236f565b7f0000000000000000000000000000000000000000000000000000000000000000856040518463ffffffff1660e01b815260040161145f93929190613121565b6020604051808303815f875af115801561147b573d5f803e3d5ffd5b505050506040513d601f19601f8201168201806040525081019061149f9190612e1c565b6114de576040517f08c379a00000000000000000000000000000000000000000000000000000000081526004016114d5906131a0565b60405180910390fd5b5f61150760646114f9600a54856124cd90919063ffffffff16565b6124b890919063ffffffff16565b90505f61151d828461237690919063ffffffff16565b905061157682600d5f61152e61236f565b73ffffffffffffffffffffffffffffffffffffffff1673ffffffffffffffffffffffffffffffffffffffff1681526020019081526020015f20546124e290919063ffffffff16565b600d5f61158161236f565b73ffffffffffffffffffffffffffffffffffffffff1673ffffffffffffffffffffffffffffffffffffffff1681526020019081526020015f208190555061161581600e5f6115cd61236f565b73ffffffffffffffffffffffffffffffffffffffff1673ffffffffffffffffffffffffffffffffffffffff1681526020019081526020015f20546124e290919063ffffffff16565b600e5f61162061236f565b73ffffffffffffffffffffffffffffffffffffffff1673ffffffffffffffffffffffffffffffffffffffff1681526020019081526020015f208190555082600b5f82825461166e9190612ed5565b9250508190555061167d61236f565b73ffffffffffffffffffffffffffffffffffffffff167f981d3319960de3bfd2a5a4e2c5f0c09bfbc736ff06aa6a9a6dde046e5635f00385856040516116c49291906131be565b60405180910390a250505050565b5f8060035f9054906101000a900473ffffffffffffffffffffffffffffffffffffffff1673ffffffffffffffffffffffffffffffffffffffff1663313ce5676040518163ffffffff1660e01b8152600401602060405180830381865afa15801561173e573d5f803e3d5ffd5b505050506040513d601f19601f82011682018060405250810190611762919061321b565b600a61176e9190613375565b6117766117db565b846117819190612b89565b61178b9190612bf7565b905080915050919050565b60065481565b600b5481565b6117aa612220565b6117b26124f7565b565b5f805f9054906101000a900473ffffffffffffffffffffffffffffffffffffffff16905090565b5f8060035f9054906101000a900473ffffffffffffffffffffffffffffffffffffffff1673ffffffffffffffffffffffffffffffffffffffff1663feaf968c6040518163ffffffff1660e01b815260040160a060405180830381865afa158015611847573d5f803e3d5ffd5b505050506040513d601f19601f8201168201806040525081019061186b9190613445565b5050509150508091505090565b611880612220565b8060035f6101000a81548173ffffffffffffffffffffffffffffffffffffffff021916908373ffffffffffffffffffffffffffffffffffffffff16021790555050565b600c5f9054906101000a900460ff1681565b6118dd612220565b8060048190555050565b6118ef612220565b8060068190555050565b60055481565b611907612220565b80600c5f6101000a81548160ff02191690831515021790555050565b6010602052805f5260405f205f915090505481565b5f60015f9054906101000a900473ffffffffffffffffffffffffffffffffffffffff1673ffffffffffffffffffffffffffffffffffffffff166370a08231306040518263ffffffff1660e01b81526004016119939190612ab5565b602060405180830381865afa1580156119ae573d5f803e3d5ffd5b505050506040513d601f19601f820116820180604052508101906119d291906134bc565b905090565b600e602052805f5260405f205f915090505481565b6119f4612220565b8060078190555050565b611a06612308565b5f611a10346116d2565b9050600554811015611a57576040517f08c379a0000000000000000000000000000000000000000000000000000000008152600401611a4e90613055565b60405180910390fd5b5f611a6182610ab7565b905080611a6c611d50565b1015611aad576040517f08c379a0000000000000000000000000000000000000000000000000000000008152600401611aa4906130e3565b60405180910390fd5b5f611ad66064611ac8600a54856124cd90919063ffffffff16565b6124b890919063ffffffff16565b90505f611aec828461237690919063ffffffff16565b9050611b4582600d5f611afd61236f565b73ffffffffffffffffffffffffffffffffffffffff1673ffffffffffffffffffffffffffffffffffffffff1681526020019081526020015f20546124e290919063ffffffff16565b600d5f611b5061236f565b73ffffffffffffffffffffffffffffffffffffffff1673ffffffffffffffffffffffffffffffffffffffff1681526020019081526020015f2081905550611be481600e5f611b9c61236f565b73ffffffffffffffffffffffffffffffffffffffff1673ffffffffffffffffffffffffffffffffffffffff1681526020019081526020015f20546124e290919063ffffffff16565b600e5f611bef61236f565b73ffffffffffffffffffffffffffffffffffffffff1673ffffffffffffffffffffffffffffffffffffffff1681526020019081526020015f208190555082600b5f828254611c3d9190612ed5565b925050819055507f000000000000000000000000000000000000000000000000000000000000000073ffffffffffffffffffffffffffffffffffffffff166108fc3490811502906040515f60405180830381858888f19350505050158015611ca7573d5f803e3d5ffd5b50611cb061236f565b73ffffffffffffffffffffffffffffffffffffffff167f0cbb209a500e5ae35f98ffdf8704d7af6020c6b741266d97c655f325838586073485604051611cf79291906131be565b60405180910390a250505050565b611d0d612220565b8060015f6101000a81548173ffffffffffffffffffffffffffffffffffffffff021916908373ffffffffffffffffffffffffffffffffffffffff16021790555050565b5f8060015f9054906101000a900473ffffffffffffffffffffffffffffffffffffffff1673ffffffffffffffffffffffffffffffffffffffff166370a08231306040518263ffffffff1660e01b8152600401611dac9190612ab5565b602060405180830381865afa158015611dc7573d5f803e3d5ffd5b505050506040513d601f19601f82011682018060405250810190611deb91906134bc565b90505f611e03600b548361237690919063ffffffff16565b9050809250505090565b611e15612308565b600754421015611e5a576040517f08c379a0000000000000000000000000000000000000000000000000000000008152600401611e5190612ca7565b60405180910390fd5b5f600d5f611e6661236f565b73ffffffffffffffffffffffffffffffffffffffff1673ffffffffffffffffffffffffffffffffffffffff1681526020019081526020015f2054905060015f9054906101000a900473ffffffffffffffffffffffffffffffffffffffff1673ffffffffffffffffffffffffffffffffffffffff1663a9059cbb611ee761236f565b836040518363ffffffff1660e01b8152600401611f05929190612de1565b6020604051808303815f875af1158015611f21573d5f803e3d5ffd5b505050506040513d601f19601f82011682018060405250810190611f459190612e1c565b50611f5b81600b5461237690919063ffffffff16565b600b819055505f600d5f611f6d61236f565b73ffffffffffffffffffffffffffffffffffffffff1673ffffffffffffffffffffffffffffffffffffffff1681526020019081526020015f2081905550611fb261236f565b73ffffffffffffffffffffffffffffffffffffffff167f896e034966eaaf1adc54acc0f257056febbd300c9e47182cf761982cf1f5e43082604051611ff79190612991565b60405180910390a250565b60095481565b600f602052805f5260405f205f915090505481565b612025612220565b61202d611d50565b81111561206f576040517f08c379a000000000000000000000000000000000000000000000000000000000815260040161206690613531565b60405180910390fd5b60015f9054906101000a900473ffffffffffffffffffffffffffffffffffffffff1673ffffffffffffffffffffffffffffffffffffffff1663a9059cbb7f0000000000000000000000000000000000000000000000000000000000000000836040518363ffffffff1660e01b81526004016120eb92919061354f565b6020604051808303815f875af1158015612107573d5f803e3d5ffd5b505050506040513d601f19601f8201168201806040525081019061212b9190612e1c565b5050565b612137612220565b80600a8190555050565b612149612220565b5f73ffffffffffffffffffffffffffffffffffffffff168173ffffffffffffffffffffffffffffffffffffffff16036121b9575f6040517f1e4fbdf70000000000000000000000000000000000000000000000000000000081526004016121b09190612ab5565b60405180910390fd5b6121c2816123f7565b50565b7f000000000000000000000000000000000000000000000000000000000000000081565b6121f1612220565b8060088190555050565b60015f9054906101000a900473ffffffffffffffffffffffffffffffffffffffff1681565b61222861236f565b73ffffffffffffffffffffffffffffffffffffffff166122466117b4565b73ffffffffffffffffffffffffffffffffffffffff16146122a55761226961236f565b6040517f118cdaa700000000000000000000000000000000000000000000000000000000815260040161229c9190612ab5565b60405180910390fd5b565b6122af612559565b5f8060146101000a81548160ff0219169083151502179055507f5db9ee0a495bf2e6ff9c91a7834c1ba4fdd244a5e8aa4e537bd38aeae4b073aa6122f161236f565b6040516122fe9190612ab5565b60405180910390a1565b6123106111a5565b15612347576040517fd93c066500000000000000000000000000000000000000000000000000000000815260040160405180910390fd5b565b5f612361620151808361235c9190612bf7565b612599565b909150905080915050919050565b5f33905090565b5f81836123839190612fd8565b905092915050565b5f6123a3620151808361239e9190612bf7565b612599565b90505080915050919050565b5f6123c762015180836123c29190612bf7565b612599565b9091505080915050919050565b5f620151806123e4858585612731565b6123ee9190612b89565b90509392505050565b5f805f9054906101000a900473ffffffffffffffffffffffffffffffffffffffff169050815f806101000a81548173ffffffffffffffffffffffffffffffffffffffff021916908373ffffffffffffffffffffffffffffffffffffffff1602179055508173ffffffffffffffffffffffffffffffffffffffff168173ffffffffffffffffffffffffffffffffffffffff167f8be0079c531659141344cd1fd0a4f28419497f9722a3daafe3b4186f6b6457e060405160405180910390a35050565b5f81836124c59190612bf7565b905092915050565b5f81836124da9190612b89565b905092915050565b5f81836124ef9190612ed5565b905092915050565b6124ff612308565b60015f60146101000a81548160ff0219169083151502179055507f62e78cea01bee320cd4e420270b5ea74000d11b0c9f74754ebdbfc544b05a25861254261236f565b60405161254f9190612ab5565b60405180910390a1565b6125616111a5565b612597576040517f8dfc202b00000000000000000000000000000000000000000000000000000000815260040160405180910390fd5b565b5f805f808490505f62253d8c62010bd9836125b49190613576565b6125be9190613576565b90505f62023ab18260046125d291906135b7565b6125dc919061362d565b9050600460038262023ab16125f191906135b7565b6125fb9190613576565b612605919061362d565b826126109190613695565b91505f62164b096001846126249190613576565b610fa061263191906135b7565b61263b919061362d565b9050601f6004826105b561264f91906135b7565b612659919061362d565b846126649190613695565b61266e9190613576565b92505f61098f84605061268191906135b7565b61268b919061362d565b90505f60508261098f61269e91906135b7565b6126a8919061362d565b856126b39190613695565b9050600b826126c2919061362d565b945084600c6126d191906135b7565b6002836126de9190613576565b6126e89190613695565b915084836031866126f99190613695565b606461270591906135b7565b61270f9190613576565b6127199190613576565b92508298508197508096505050505050509193909250565b5f6107b2841015612740575f80fd5b5f8490505f8490505f8490505f62253d8c60046064600c600e876127649190613695565b61276e919061362d565b6113248861277c9190613576565b6127869190613576565b612790919061362d565b600361279c91906135b7565b6127a6919061362d565b600c80600c600e886127b89190613695565b6127c2919061362d565b6127cc91906135b7565b6002876127d99190613695565b6127e39190613695565b61016f6127f091906135b7565b6127fa919061362d565b6004600c600e8861280b9190613695565b612815919061362d565b6112c0896128239190613576565b61282d9190613576565b6105b561283a91906135b7565b612844919061362d565b617d4b866128529190613695565b61285c9190613576565b6128669190613576565b6128709190613695565b61287a9190613695565b9050809450505050509392505050565b5f80fd5b5f73ffffffffffffffffffffffffffffffffffffffff82169050919050565b5f6128b78261288e565b9050919050565b5f6128c8826128ad565b9050919050565b6128d8816128be565b81146128e2575f80fd5b50565b5f813590506128f3816128cf565b92915050565b5f6020828403121561290e5761290d61288a565b5b5f61291b848285016128e5565b91505092915050565b5f819050919050565b61293681612924565b8114612940575f80fd5b50565b5f813590506129518161292d565b92915050565b5f6020828403121561296c5761296b61288a565b5b5f61297984828501612943565b91505092915050565b61298b81612924565b82525050565b5f6020820190506129a45f830184612982565b92915050565b5f819050919050565b5f6129cd6129c86129c38461288e565b6129aa565b61288e565b9050919050565b5f6129de826129b3565b9050919050565b5f6129ef826129d4565b9050919050565b6129ff816129e5565b82525050565b5f602082019050612a185f8301846129f6565b92915050565b612a27816128ad565b8114612a31575f80fd5b50565b5f81359050612a4281612a1e565b92915050565b5f60208284031215612a5d57612a5c61288a565b5b5f612a6a84828501612a34565b91505092915050565b5f8115159050919050565b612a8781612a73565b82525050565b5f602082019050612aa05f830184612a7e565b92915050565b612aaf816128ad565b82525050565b5f602082019050612ac85f830184612aa6565b92915050565b612ad781612a73565b8114612ae1575f80fd5b50565b5f81359050612af281612ace565b92915050565b5f60208284031215612b0d57612b0c61288a565b5b5f612b1a84828501612ae4565b91505092915050565b5f612b2d8261288e565b9050919050565b612b3d81612b23565b82525050565b5f602082019050612b565f830184612b34565b92915050565b7f4e487b71000000000000000000000000000000000000000000000000000000005f52601160045260245ffd5b5f612b9382612924565b9150612b9e83612924565b9250828202612bac81612924565b91508282048414831517612bc357612bc2612b5c565b5b5092915050565b7f4e487b71000000000000000000000000000000000000000000000000000000005f52601260045260245ffd5b5f612c0182612924565b9150612c0c83612924565b925082612c1c57612c1b612bca565b5b828204905092915050565b5f82825260208201905092915050565b7f596f75207374696c6c2063616e6e6f7420636c61696d2074686520746f6b656e5f8201527f7300000000000000000000000000000000000000000000000000000000000000602082015250565b5f612c91602183612c27565b9150612c9c82612c37565b604082019050919050565b5f6020820190508181035f830152612cbe81612c85565b9050919050565b7f596f752063616e6e6f7420636c61696d20746f6b656e732074686973206d6f6e5f8201527f7468207965740000000000000000000000000000000000000000000000000000602082015250565b5f612d1f602683612c27565b9150612d2a82612cc5565b604082019050919050565b5f6020820190508181035f830152612d4c81612d13565b9050919050565b7f546f6b656e7320616c726561647920636c61696d656420666f722074686973205f8201527f6d6f6e7468000000000000000000000000000000000000000000000000000000602082015250565b5f612dad602583612c27565b9150612db882612d53565b604082019050919050565b5f6020820190508181035f830152612dda81612da1565b9050919050565b5f604082019050612df45f830185612aa6565b612e016020830184612982565b9392505050565b5f81519050612e1681612ace565b92915050565b5f60208284031215612e3157612e3061288a565b5b5f612e3e84828501612e08565b91505092915050565b7f4661696c656420746f207472616e7366657220746f6b656e7320746f207573655f8201527f7200000000000000000000000000000000000000000000000000000000000000602082015250565b5f612ea1602183612c27565b9150612eac82612e47565b604082019050919050565b5f6020820190508181035f830152612ece81612e95565b9050919050565b5f612edf82612924565b9150612eea83612924565b9250828201905080821115612f0257612f01612b5c565b5b92915050565b7f6f70656e20636c61696d2069732064697361626c6564000000000000000000005f82015250565b5f612f3c601683612c27565b9150612f4782612f08565b602082019050919050565b5f6020820190508181035f830152612f6981612f30565b9050919050565b7f4e6f20746f6b656e7320617661696c61626c6520666f7220636c61696d0000005f82015250565b5f612fa4601d83612c27565b9150612faf82612f70565b602082019050919050565b5f6020820190508181035f830152612fd181612f98565b9050919050565b5f612fe282612924565b9150612fed83612924565b925082820390508181111561300557613004612b5c565b5b92915050565b7f4d696e696d756d20707572636861736520616d6f756e74206e6f74206d6574005f82015250565b5f61303f601f83612c27565b915061304a8261300b565b602082019050919050565b5f6020820190508181035f83015261306c81613033565b9050919050565b7f50726573616c652042616c616e636520636f6e747261637420686173206e6f745f8201527f20656e6f75676820746f6b656e7320696e206974732062616c616e6365000000602082015250565b5f6130cd603d83612c27565b91506130d882613073565b604082019050919050565b5f6020820190508181035f8301526130fa816130c1565b9050919050565b5f61310b826129d4565b9050919050565b61311b81613101565b82525050565b5f6060820190506131345f830186612aa6565b6131416020830185613112565b61314e6040830184612982565b949350505050565b7f5061796d656e74206e6f742072656365697665640000000000000000000000005f82015250565b5f61318a601483612c27565b915061319582613156565b602082019050919050565b5f6020820190508181035f8301526131b78161317e565b9050919050565b5f6040820190506131d15f830185612982565b6131de6020830184612982565b9392505050565b5f60ff82169050919050565b6131fa816131e5565b8114613204575f80fd5b50565b5f81519050613215816131f1565b92915050565b5f602082840312156132305761322f61288a565b5b5f61323d84828501613207565b91505092915050565b5f8160011c9050919050565b5f808291508390505b600185111561329b5780860481111561327757613276612b5c565b5b60018516156132865780820291505b808102905061329485613246565b945061325b565b94509492505050565b5f826132b3576001905061336e565b816132c0575f905061336e565b81600181146132d657600281146132e05761330f565b600191505061336e565b60ff8411156132f2576132f1612b5c565b5b8360020a91508482111561330957613308612b5c565b5b5061336e565b5060208310610133831016604e8410600b84101617156133445782820a90508381111561333f5761333e612b5c565b5b61336e565b6133518484846001613252565b9250905081840481111561336857613367612b5c565b5b81810290505b9392505050565b5f61337f82612924565b915061338a836131e5565b92506133b77fffffffffffffffffffffffffffffffffffffffffffffffffffffffffffffffff84846132a4565b905092915050565b5f69ffffffffffffffffffff82169050919050565b6133dd816133bf565b81146133e7575f80fd5b50565b5f815190506133f8816133d4565b92915050565b5f819050919050565b613410816133fe565b811461341a575f80fd5b50565b5f8151905061342b81613407565b92915050565b5f8151905061343f8161292d565b92915050565b5f805f805f60a0868803121561345e5761345d61288a565b5b5f61346b888289016133ea565b955050602061347c8882890161341d565b945050604061348d88828901613431565b935050606061349e88828901613431565b92505060806134af888289016133ea565b9150509295509295909350565b5f602082840312156134d1576134d061288a565b5b5f6134de84828501613431565b91505092915050565b7f496e73756666696369656e7420746f6b656e2062616c616e63650000000000005f82015250565b5f61351b601a83612c27565b9150613526826134e7565b602082019050919050565b5f6020820190508181035f8301526135488161350f565b9050919050565b5f6040820190506135625f830185613112565b61356f6020830184612982565b9392505050565b5f613580826133fe565b915061358b836133fe565b92508282019050828112155f8312168382125f8412151617156135b1576135b0612b5c565b5b92915050565b5f6135c1826133fe565b91506135cc836133fe565b92508282026135da816133fe565b91507f800000000000000000000000000000000000000000000000000000000000000084145f8412161561361157613610612b5c565b5b828205841483151761362657613625612b5c565b5b5092915050565b5f613637826133fe565b9150613642836133fe565b92508261365257613651612bca565b5b60015f0383147f80000000000000000000000000000000000000000000000000000000000000008314161561368a57613689612b5c565b5b828205905092915050565b5f61369f826133fe565b91506136aa836133fe565b925082820390508181125f8412168282135f8512151617156136cf576136ce612b5c565b5b9291505056fea26469706673582212204477c7879f1faab8d882afa879243958024d048bd86b780a053ffd531fd3e52364736f6c63430008150033",
  "immutableReferences": {
    "2194": [
      {
        "length": 32,
        "start": 5153
      },
      {
        "length": 32,
        "start": 7238
      },
      {
        "length": 32,
        "start": 8366
      },
      {
        "length": 32,
        "start": 8647
      }
    ]
  },
  "source": "// SPDX-License-Identifier: MIT\r\npragma solidity ^0.8.20;\r\n\r\nlibrary SafeMath {\r\n  function add(uint256 a, uint256 b) internal pure returns (uint256) {\r\n    return a + b;\r\n  }\r\n\r\n  function sub(uint256 a, uint256 b) internal pure returns (uint256) {\r\n    return a - b;\r\n  }\r\n\r\n  function mul(uint256 a, uint256 b) internal pure returns (uint256) {\r\n    return a * b;\r\n  }\r\n\r\n  function div(uint256 a, uint256 b) internal pure returns (uint256) {\r\n    return a / b;\r\n  }\r\n\r\n  function sub(uint256 a, uint256 b, string memory errorMessage) internal pure returns (uint256) {\r\n    unchecked {\r\n      require(b <= a, errorMessage);\r\n      return a - b;\r\n    }\r\n  }\r\n\r\n  function div(uint256 a, uint256 b, string memory errorMessage) internal pure returns (uint256) {\r\n    unchecked {\r\n      require(b > 0, errorMessage);\r\n      return a / b;\r\n    }\r\n  }\r\n}\r\n\r\ninterface AggregatorV3Interface {\r\n  function decimals() external view returns (uint8);\r\n  function description() external view returns (string memory);\r\n  function version() external view returns (uint256);\r\n  function getRoundData(\r\n    uint80 _roundId\r\n  ) external view returns (uint80 roundId, int256 answer, uint256 startedAt, uint256 updatedAt, uint80 answeredInRound);\r\n  function latestRoundData()\r\n    external\r\n    view\r\n    returns (uint80 roundId, int256 answer, uint256 startedAt, uint256 updatedAt, uint80 answeredInRound);\r\n}\r\n\r\ninterface IERC20 {\r\n  event Transfer(address indexed from, address indexed to, uint256 value);\r\n  event Approval(address indexed owner, address indexed spender, uint256 value);\r\n\r\n  function totalSupply() external view returns (uint256);\r\n  function balanceOf(address account) external view returns (uint256);\r\n  function transfer(address to, uint256 value) external returns (bool);\r\n  function allowance(address owner, address spender) external view returns (uint256);\r\n  function approve(address spender, uint256 value) external returns (bool);\r\n  function transferFrom(address from, address to, uint256 value) external returns (bool);\r\n}\r\n\r\nabstract contract DateTime {\r\n  uint256 constant SECONDS_PER_DAY = 24 * 60 * 60;\r\n  int constant OFFSET19700101 = 2440588;\r\n\r\n  function timestampFromDate(uint256 year, uint256 month, uint256 day) internal pure returns (uint256 timestamp) {\r\n    timestamp = daysFromDate(year, month, day) * SECONDS_PER_DAY;\r\n  }\r\n\r\n  function getYear(uint256 timestamp) internal pure returns (uint256 year) {\r\n    (year, , ) = daysToDate(timestamp / SECONDS_PER_DAY);\r\n  }\r\n\r\n  function getMonth(uint256 timestamp) internal pure returns (uint256 month) {\r\n    (, month, ) = daysToDate(timestamp / SECONDS_PER_DAY);\r\n  }\r\n\r\n  function getDay(uint256 timestamp) internal pure returns (uint256 day) {\r\n    (, , day) = daysToDate(timestamp / SECONDS_PER_DAY);\r\n  }\r\n\r\n  function daysFromDate(uint256 year, uint256 month, uint256 day) internal pure returns (uint256 _days) {\r\n    require(year >= 1970);\r\n    int _year = int(year);\r\n    int _month = int(month);\r\n    int _day = int(day);\r\n\r\n    int __days = _day -\r\n      32075 +\r\n      (1461 * (_year + 4800 + (_month - 14) / 12)) /\r\n      4 +\r\n      (367 * (_month - 2 - ((_month - 14) / 12) * 12)) /\r\n      12 -\r\n      (3 * ((_year + 4900 + (_month - 14) / 12) / 100)) /\r\n      4 -\r\n      OFFSET19700101;\r\n\r\n    _days = uint256(__days);\r\n  }\r\n\r\n  function daysToDate(uint256 _days) internal pure returns (uint256 year, uint256 month, uint256 day) {\r\n    int __days = int(_days);\r\n\r\n    int L = __days + 68569 + OFFSET19700101;\r\n    int N = (4 * L) / 146097;\r\n    L = L - (146097 * N + 3) / 4;\r\n    int _year = (4000 * (L + 1)) / 1461001;\r\n    L = L - (1461 * _year) / 4 + 31;\r\n    int _month = (80 * L) / 2447;\r\n    int _day = L - (2447 * _month) / 80;\r\n    L = _month / 11;\r\n    _month = _month + 2 - 12 * L;\r\n    _year = 100 * (N - 49) + _year + L;\r\n\r\n    year = uint256(_year);\r\n    month = uint256(_month);\r\n    day = uint256(_day);\r\n  }\r\n}\r\n\r\nabstract contract Context {\r\n  function _msgSender() internal view virtual returns (address) {\r\n    return msg.sender;\r\n  }\r\n\r\n  function _msgData() internal view virtual returns (bytes calldata) {\r\n    return msg.data;\r\n  }\r\n\r\n  function _contextSuffixLength() internal view virtual returns (uint256) {\r\n    return 0;\r\n  }\r\n}\r\n\r\nabstract contract Pausable is Context {\r\n  bool private _paused;\r\n\r\n  event Paused(address account);\r\n  event Unpaused(address account);\r\n\r\n  error EnforcedPause();\r\n  error ExpectedPause();\r\n\r\n  constructor() {\r\n    _paused = false;\r\n  }\r\n\r\n  modifier whenNotPaused() {\r\n    _requireNotPaused();\r\n    _;\r\n  }\r\n\r\n  modifier whenPaused() {\r\n    _requirePaused();\r\n    _;\r\n  }\r\n\r\n  function paused() public view virtual returns (bool) {\r\n    return _paused;\r\n  }\r\n\r\n  function _requireNotPaused() internal view virtual {\r\n    if (paused()) {\r\n      revert EnforcedPause();\r\n    }\r\n  }\r\n\r\n  function _requirePaused() internal view virtual {\r\n    if (!paused()) {\r\n      revert ExpectedPause();\r\n    }\r\n  }\r\n\r\n  function _pause() internal virtual whenNotPaused {\r\n    _paused = true;\r\n    emit Paused(_msgSender());\r\n  }\r\n\r\n  function _unpause() internal virtual whenPaused {\r\n    _paused = false;\r\n    emit Unpaused(_msgSender());\r\n  }\r\n}\r\n\r\nabstract contract Ownable is Context {\r\n  address private _owner;\r\n\r\n  error OwnableUnauthorizedAccount(address account);\r\n  error OwnableInvalidOwner(address owner);\r\n\r\n  event OwnershipTransferred(address indexed previousOwner, address indexed newOwner);\r\n\r\n  constructor(address initialOwner) {\r\n    if (initialOwner == address(0)) {\r\n      revert OwnableInvalidOwner(address(0));\r\n    }\r\n    _transferOwnership(initialOwner);\r\n  }\r\n\r\n  modifier onlyOwner() {\r\n    _checkOwner();\r\n    _;\r\n  }\r\n\r\n  function owner() public view virtual returns (address) {\r\n    return _owner;\r\n  }\r\n\r\n  function _checkOwner() internal view virtual {\r\n    if (owner() != _msgSender()) {\r\n      revert OwnableUnauthorizedAccount(_msgSender());\r\n    }\r\n  }\r\n\r\n  function renounceOwnership() public virtual onlyOwner {\r\n    _transferOwnership(address(0));\r\n  }\r\n\r\n  function transferOwnership(address newOwner) public virtual onlyOwner {\r\n    if (newOwner == address(0)) {\r\n      revert OwnableInvalidOwner(address(0));\r\n    }\r\n    _transferOwnership(newOwner);\r\n  }\r\n\r\n  function _transferOwnership(address newOwner) internal virtual {\r\n    address oldOwner = _owner;\r\n    _owner = newOwner;\r\n    emit OwnershipTransferred(oldOwner, newOwner);\r\n  }\r\n}\r\n\r\ncontract ShineGameFiBscPresale is Ownable, Pausable, DateTime {\r\n  using SafeMath for uint256;\r\n\r\n  address payable public immutable admin;\r\n\r\n  IERC20 public token;\r\n  IERC20 public usdt;\r\n\r\n  AggregatorV3Interface internal priceFeed;\r\n\r\n  uint256 public tokenPerUSDT = 16667 * 1e16;\r\n  uint256 public minimumPurchaseUSDT = 20 * 1e18;\r\n\r\n  uint256 public claimDay = 10;\r\n  uint256 public firstStageClaimDate;\r\n  uint256 public secondStageClaimDate;\r\n\r\n  uint256 public maxClaims = 9;\r\n  uint256 public initialReleasePercentage = 20;\r\n  uint256 public totalBalanceTokensStored = 0;\r\n\r\n  bool public isOpenClaim = false;\r\n\r\n  mapping(address => uint256) public firstStagebalances;\r\n  mapping(address => uint256) public secondStagebalances;\r\n\r\n  mapping(address => uint256) public buyerClaims;\r\n  mapping(address => uint256) public lastClaimTime;\r\n\r\n  event TokensPerEtherPurchased(address indexed buyer, uint256 etherAmount, uint256 tokenAmount);\r\n  event TokensPerUSDTPurchased(address indexed buyer, uint256 usdtAmount, uint256 tokenAmount);\r\n  event TokensClaimed(address indexed buyer, uint256 amountClaimed);\r\n\r\n  constructor(address _admin, address _usdt, address _token, address _chainlink) Ownable(_msgSender()) {\r\n    admin = payable(_admin);\r\n    token = IERC20(_token);\r\n    usdt = IERC20(_usdt);\r\n    priceFeed = AggregatorV3Interface(_chainlink);\r\n  }\r\n\r\n  receive() external payable {}\r\n\r\n  function buyTokensByEther() external payable whenNotPaused {\r\n    uint256 usdtAmount = etherToUSDT(msg.value);\r\n    require(usdtAmount >= minimumPurchaseUSDT, \"Minimum purchase amount not met\");\r\n\r\n    uint256 tokenAmount = usdtToToken(usdtAmount);\r\n\r\n    require(\r\n      tokenBalanceAvailableForPurchase() >= tokenAmount,\r\n      \"Presale Balance contract has not enough tokens in its balance\"\r\n    );\r\n\r\n    uint256 tokensFirstStage = tokenAmount.mul(initialReleasePercentage).div(100);\r\n    uint256 tokensSecondStage = tokenAmount.sub(tokensFirstStage);\r\n\r\n    firstStagebalances[_msgSender()] = firstStagebalances[_msgSender()].add(tokensFirstStage);\r\n    secondStagebalances[_msgSender()] = secondStagebalances[_msgSender()].add(tokensSecondStage);\r\n\r\n    totalBalanceTokensStored += tokenAmount;\r\n    admin.transfer(msg.value);\r\n\r\n    emit TokensPerEtherPurchased(_msgSender(), msg.value, tokenAmount);\r\n  }\r\n\r\n  function buyTokensByUSDT(uint256 _usdtAmount) external whenNotPaused {\r\n    require(_usdtAmount >= minimumPurchaseUSDT, \"Minimum purchase amount not met\");\r\n    uint256 tokenAmount = usdtToToken(_usdtAmount);\r\n\r\n    require(\r\n      tokenBalanceAvailableForPurchase() >= tokenAmount,\r\n      \"Presale Balance contract has not enough tokens in its balance\"\r\n    );\r\n\r\n    require(usdt.transferFrom(_msgSender(), admin, _usdtAmount), \"Payment not received\");\r\n\r\n    uint256 tokensFirstStage = tokenAmount.mul(initialReleasePercentage).div(100);\r\n    uint256 tokensSecondStage = tokenAmount.sub(tokensFirstStage);\r\n\r\n    firstStagebalances[_msgSender()] = firstStagebalances[_msgSender()].add(tokensFirstStage);\r\n    secondStagebalances[_msgSender()] = secondStagebalances[_msgSender()].add(tokensSecondStage);\r\n\r\n    totalBalanceTokensStored += tokenAmount;\r\n\r\n    emit TokensPerUSDTPurchased(_msgSender(), _usdtAmount, tokenAmount);\r\n  }\r\n\r\n  function claimFirstStage() external whenNotPaused {\r\n    require(block.timestamp >= firstStageClaimDate, \"You still cannot claim the tokens\");\r\n\r\n    uint256 amountToClaim = firstStagebalances[_msgSender()];\r\n\r\n    token.transfer(_msgSender(), amountToClaim);\r\n    totalBalanceTokensStored = totalBalanceTokensStored.sub(amountToClaim);\r\n\r\n    firstStagebalances[_msgSender()] = 0;\r\n\r\n    emit TokensClaimed(_msgSender(), amountToClaim);\r\n  }\r\n\r\n  function claim() external whenNotPaused {\r\n    require(block.timestamp >= secondStageClaimDate, \"You still cannot claim the tokens\");\r\n    require(getDay(block.timestamp) >= claimDay, \"You cannot claim tokens this month yet\");\r\n    require(lastClaimTime[_msgSender()] < startOfMonth(block.timestamp), \"Tokens already claimed for this month\");\r\n\r\n    uint256 amountToClaim = calculateClaimableAmount(_msgSender());\r\n\r\n    lastClaimTime[_msgSender()] = block.timestamp;\r\n    require(token.transfer(_msgSender(), amountToClaim), \"Failed to transfer tokens to user\");\r\n\r\n    secondStagebalances[_msgSender()] = secondStagebalances[_msgSender()].sub(amountToClaim);\r\n    totalBalanceTokensStored = totalBalanceTokensStored.sub(amountToClaim);\r\n\r\n    buyerClaims[_msgSender()] += 1;\r\n\r\n    emit TokensClaimed(_msgSender(), amountToClaim);\r\n  }\r\n\r\n  function openClaim(uint256 _amount) external whenNotPaused {\r\n    require(isOpenClaim == true, \"open claim is disabled\");\r\n    require(secondStagebalances[_msgSender()] >= _amount, \"No tokens available for claim\");\r\n    require(token.transfer(_msgSender(), _amount), \"Failed to transfer tokens to user\");\r\n\r\n    secondStagebalances[_msgSender()] = secondStagebalances[_msgSender()].sub(_amount);\r\n    totalBalanceTokensStored = totalBalanceTokensStored.sub(_amount);\r\n\r\n    emit TokensClaimed(_msgSender(), _amount);\r\n  }\r\n\r\n  function calculateClaimableAmount(address _account) public view returns (uint256) {\r\n    require(secondStagebalances[_account] > 0, \"No tokens available for claim\");\r\n\r\n    uint256 totalTokensStored = secondStagebalances[_account];\r\n    uint256 numAvailableClaims = maxClaims - buyerClaims[_account];\r\n    uint256 claimableAmount = totalTokensStored.div(numAvailableClaims);\r\n\r\n    return claimableAmount;\r\n  }\r\n\r\n  function startOfMonth(uint256 timestamp) public pure returns (uint256) {\r\n    uint year = getYear(timestamp);\r\n    uint month = getMonth(timestamp);\r\n\r\n    return timestampFromDate(year, month, 1);\r\n  }\r\n\r\n  function tokenBalanceAvailableForPurchase() public view returns (uint256) {\r\n    uint256 tokenBalance = token.balanceOf(address(this));\r\n    uint256 tokensAvailable = tokenBalance.sub(totalBalanceTokensStored);\r\n\r\n    return tokensAvailable;\r\n  }\r\n\r\n  function etherToUSDT(uint256 _etherAmount) public view returns (uint256) {\r\n    uint256 numberOfUSDTs = (_etherAmount * getLatestPrice()) / (10 ** priceFeed.decimals());\r\n    return numberOfUSDTs;\r\n  }\r\n\r\n  function usdtToToken(uint256 _usdtAmount) public view returns (uint256) {\r\n    uint256 numberOfTokens = (_usdtAmount * (tokenPerUSDT)) / (1e18);\r\n    return numberOfTokens;\r\n  }\r\n\r\n  function getLatestPrice() public view returns (uint256) {\r\n    (, int256 price, , , ) = priceFeed.latestRoundData();\r\n    return uint256(price);\r\n  }\r\n\r\n  function changeTokenAddress(IERC20 _token) external onlyOwner {\r\n    token = _token;\r\n  }\r\n\r\n  function changeUSDTAddress(IERC20 _usdt) external onlyOwner {\r\n    usdt = _usdt;\r\n  }\r\n\r\n  function changeChainlink(address _chainlink) external onlyOwner {\r\n    priceFeed = AggregatorV3Interface(_chainlink);\r\n  }\r\n\r\n  function changePrice(uint256 _price) external onlyOwner {\r\n    tokenPerUSDT = _price;\r\n  }\r\n\r\n  function changeMinimumPurchaseUSDT(uint256 _minimumPurchaseUSDT) external onlyOwner {\r\n    minimumPurchaseUSDT = _minimumPurchaseUSDT;\r\n  }\r\n\r\n  function changeClaimDay(uint256 _claimDay) external onlyOwner {\r\n    claimDay = _claimDay;\r\n  }\r\n\r\n  function changeFirstStageClaimDate(uint256 _firstStageClaimDate) external onlyOwner {\r\n    firstStageClaimDate = _firstStageClaimDate;\r\n  }\r\n\r\n  function changeSecondStageClaimDate(uint256 _secondStageClaimDate) external onlyOwner {\r\n    secondStageClaimDate = _secondStageClaimDate;\r\n  }\r\n\r\n  function changeInitialReleasePercentage(uint256 _initialReleasePercentage) external onlyOwner {\r\n    initialReleasePercentage = _initialReleasePercentage;\r\n  }\r\n\r\n  function changeMaxClaims(uint256 _maxClaims) external onlyOwner {\r\n    maxClaims = _maxClaims;\r\n  }\r\n\r\n  function setIsOpenClaim(bool _isOpenClaim) external onlyOwner {\r\n    isOpenClaim = _isOpenClaim;\r\n  }\r\n\r\n  function transferFundsTokens(uint256 _amount) external onlyOwner {\r\n    require(_amount <= tokenBalanceAvailableForPurchase(), \"Insufficient token balance\");\r\n    token.transfer(admin, _amount);\r\n  }\r\n\r\n  function contractBalanceTokens() external view returns (uint256) {\r\n    return token.balanceOf(address(this));\r\n  }\r\n\r\n  function pause() external onlyOwner {\r\n    _pause();\r\n  }\r\n\r\n  function unpause() external onlyOwner {\r\n    _unpause();\r\n  }\r\n}\r\n",
  "sourcePath": "D:\\devuint\\works\\shine\\smartcontracts\\contracts\\ShineGameFiBscPresale.sol",
  "compiler": {
    "name": "solc",
    "version": "0.8.21+commit.d9974bed.Emscripten.clang"
  },
  "schemaVersion": "3.4.16",
  "updatedAt": "2024-06-22T04:52:38.886Z",
  "devdoc": {
    "kind": "dev",
    "methods": {},
    "version": 1
  },
  "userdoc": {
    "kind": "user",
    "methods": {},
    "version": 1
  }
}